:020000040810E2
:10000000000008240D080008B5100008B71000080B
:10001000B9100008BB100008BD1000080000000067
:1000200000000000000000000000000091960008A1
:10003000BF10000800000000219700088597000805
:10004000090800080908000809080008C11000088C
:10005000CD10000809080008090800080908000870
:10006000090800080908000809080008D11000085C
:10007000DD100008E9100008090800080908000858
:10008000090800080908000809080008F510000818
:1000900009080008090800080908000809080008FC
:1000A00009080008011100080908000809080008EB
:1000B00009080008090800080908000809080008DC
:1000C00009080008090800080908000809080008CC
:1000D000090800080D1100080908000809080008AF
:1000E00009080008090800080000000009080008C5
:1000F000090800080908000809080008090800089C
:10010000090800080908000809080008090800088B
:10011000090800080908000809080008090800087B
:10012000090800080908000809080008090800086B
:10013000090800080908000809080008090800085B
:1001400000000000000000000000000000000000AF
:10015000090800080908000809080008090800083B
:10016000090800080908000809080008090800082B
:100170000908000809080008090800081911000802
:1001800025110008090800080908000809080008E6
:1001900009080008090800080908000809080008FB
:1001A00009080008090800080908000809080008EB
:1001B00009080008090800080908000809080008DB
:1001C00009080008090800080908000809080008CB
:1001D00009080008090800080908000809080008BB
:1001E00009080008090800080908000809080008AB
:1001F000090800080908000809080008090800089B
:10020000090800080908000809080008090800088A
:10021000090800080908000809080008090800087A
:100220000908000809080008090800080000000083
:100230000908000809080008000000000908000873
:10024000090800080908000809080008090800084A
:10025000090800080908000809080008090800083A
:10026000090800080908000809080008090800082A
:100270000908000809080008090800080000000033
:100280000908000809080008090800080000000023
:0802900000000000090800084D
:1002C00053B94AB9002908BF00281CBF4FF0FF31BD
:1002D0004FF0FF3000F00CB8ADF1080C6DE904CE22
:1002E0000AF05EFADDF804E0DDE9022304B07047AD
:1002F000704700BF844641EA000313F003036DD149
:10030000403A41D351F8043B40F8043B51F8043BD8
:1003100040F8043B51F8043B40F8043B51F8043BDF
:1003200040F8043B51F8043B40F8043B51F8043BCF
:1003300040F8043B51F8043B40F8043B51F8043BBF
:1003400040F8043B51F8043B40F8043B51F8043BAF
:1003500040F8043B51F8043B40F8043B51F8043B9F
:1003600040F8043B51F8043B40F8043B51F8043B8F
:1003700040F8043B51F8043B40F8043B51F8043B7F
:1003800040F8043B403ABDD2303211D351F8043B1F
:1003900040F8043B51F8043B40F8043B51F8043B5F
:1003A00040F8043B51F8043B40F8043B103AEDD2CE
:1003B0000C3205D351F8043B40F8043B043AF9D21F
:1003C000043208D0D2071CBF11F8013B00F8013BF2
:1003D00001D30B8803806046704700BF082A13D3FF
:1003E0008B078DD010F003038AD0C3F10403D21A17
:1003F000DB071CBF11F8013B00F8013B80D331F84B
:10040000023B20F8023B7BE7043AD9D3013A11F8CA
:10041000013B00F8013BF9D20B7803704B78437035
:100420008B78837060467047000000000000000079
:1004300000000000000000000000000000000000BC
:1004400030B490F800F020F007016FF0000C10F0CD
:10045000070491F820F040F048804FF000046FF05E
:100460000700D1E9002391F840F000F1080082FA7A
:100470004CF2A4FA8CF283FA4CF3A2FA8CF34BBB45
:10048000D1E9022382FA4CF200F10800A4FA8CF2BE
:1004900083FA4CF3A2FA8CF3E3B9D1E9042382FA8C
:1004A0004CF200F10800A4FA8CF283FA4CF3A2FAA1
:1004B0008CF37BB9D1E9062301F1200182FA4CF2D9
:1004C00000F10800A4FA8CF283FA4CF3A2FA8CF340
:1004D000002BC6D0002A04BF04301A4612BAB2FA62
:1004E00082F200EBD20030BC7047D1E9002304F067
:1004F0000305C4F100004FEAC50514F0040F91F89C
:1005000040F00CFA05F562EA05021CBF63EA050338
:1005100062464FF00004AAE7F0B538B1B1B10A78ED
:10052000B2B103461C7818460CB92046F0BDA24271
:100530000AD14E1E1F4616F8015F002DF6D017F89F
:10054000014B0CB1A542F6D00133EBE70846EDE7CD
:100550001046EBE703461A78184601330AB91046ED
:1005600001E08A42F7D17047FFF76ABF08B520B1B2
:100570002AB10AF073FA002008BD0220FCE7072028
:10058000FAE7013810B510F8013F03B910BD14683F
:100590000B55136801331360F5E7F0B5002385B000
:1005A0000A271C460133B0FBF7F6103407FB16058B
:1005B000DBB26C44303504F80C5C04463046092C40
:1005C000EFD80BB905B0F0BD581E04AD1468C3B226
:1005D00055FA80F010F80C0C0855106801301060C6
:1005E000EFE70000B5EEC00A0A4673B5F1EE10FA67
:1005F000054601AE42BFB1EE400A0B682D21FDEE6B
:10060000C07A44BFC15413680146B8EEE77A48BFC8
:10061000013317EE900A48BF136030EE470A9FED92
:10062000157AFFF7BAFF13682E210A2020EE070A79
:10063000E95402A91368BCEEC07A013317EE104AE0
:100640001360B4FBF0F300FB1344303401F8014DA8
:100650008E421C46F5D1002311F8014B013310687E
:10066000DBB22C541468042B04F101041460F3D1A0
:1006700002B070BD00401C46F7B5002604460D468A
:10068000174601962B78019813B1B0F5806F03D30C
:100690000023235403B0F0BD252B3ED16A7807EB2D
:1006A000860157F82630662A097926D007D8632AAA
:1006B0002CD0642A0DD0013502360135E2E7732AC9
:1006C000F9D10429F7D101AA21461846FFF759FFAD
:1006D000F1E701290DD0022905D00029EBD101AAAB
:1006E0002146187802E001AA21461868FFF755FF55
:1006F000E1E701AA21461888F8E70329DBD101A91F
:10070000204693ED000AFFF76DFFD4E70029D2D110
:10071000421C1B7801922354CDE7421C23540192C2
:10072000CBE758B151B15AB10139024410F8013B3D
:10073000904201F8013FF9D1002070470220704734
:10074000072070470023013930B59CB2A24201D87E
:10075000002006E0C55C0133CC5CA542F5D001D990
:10076000012030BD4FF0FF30FBE72DE9F041064698
:1007700008460F46FFF7F8FE0446A0B13046FFF7E3
:10078000F3FEA0420ED9051B4FF00008A2B206EB03
:10079000080439462046FFF7D5FF20B108F10108CB
:1007A000A845F4D900242046BDE8F081024610B5E2
:1007B00070B169B1002340F2FF14D05C30B1A342A4
:1007C00001D1062010BDC8540133F6E7C854F9E73B
:1007D0000220F7E7B0B1A9B10023CA5C12B1B3F5AA
:1007E000007F01D1421E03E00133F6E7C854013314
:1007F00012F8010F20B1B3F5FF7FF7D9062070473B
:10080000C854704702207047FEE7000008B500F0AA
:10081000F3FC0748074A0849121AFFF76BFD07481F
:10082000074A0021121A0AF019F909F0B3FFFEE78E
:10083000000000246802002474B400086802002448
:100840009841002410B59CB04C22002109A80AF060
:1008500005F92022002101A80AF000F9022004F085
:10086000D7FA00230093254BDA6A22F00102DA62FC
:10087000DB6A234A03F001030093936923F44043A6
:1008800043F480439361936903F440430093009BD6
:1008900093699C04FCD54FF4803309211E220C205F
:1008A0000124CDE9091302230E941494CDE91523F4
:1008B0000522CDE91233CDE917230023CDE9190331
:1008C00009A81B9301F018FB08B172B6FEE70323D9
:1008D0003F222146CDE901234FF40063CDE90330E7
:1008E0004FF48063CDE90500CDE9073001A801F0A0
:1008F0004BFE08B172B6FEE71CB010BD00040058F4
:100900000048025800B5B1B0B822002102A80AF090
:10091000A5F800234FF000426846CDE900234FF0D0
:100920000053159302F0B2F808B172B6FEE731B089
:100930005DF804FB08B504F0E1FAFFF783FFFFF769
:10094000E1FF00F01FF800F07BFA00F033F900F04F
:100950009DF800F0C5FA00F0B5F900F011FB00F0C9
:100960003DFBBDE8084000F07BBB00000268034B84
:100970009A4201D104F0F0BA704700BF0000014074
:1009800072B6FEE72DE9F04114228AB000213B4EF9
:100990000DEB0200DFF8F0800AF060F8384B3046CB
:1009A000384FD3F8E0204FF400510024012542F0E5
:1009B0008002C3F8E020D3F8E02002F08002019228
:1009C000019AD3F8E02042F00102C3F8E020D3F806
:1009D000E02002F001020292029AD3F8E02042F0F5
:1009E0000202C3F8E020D3F8E02002F002020392F2
:1009F000039AD3F8E02042F00802C3F8E020002276
:100A0000D3F8E03003F008030493049B03F082FA68
:100A1000404600224FF4704103F07CFA0022384631
:100A20004FF4806103F076FA4FF4805305A9304605
:100A30000794CDE9053403F085F94FF4005305A977
:100A40003046CDE90535CDE9074403F07BF94FF495
:100A5000704305A94046CDE90535CDE9074403F0CB
:100A600071F94FF4806305A93846CDE90535CDE924
:100A7000074403F067F90AB0BDE8F08100040258AA
:100A80000044025800000258000C025810B500241F
:100A90008AB01C22214603A80294CDE9004409F043
:100AA000DDFF1C481C4B84820477446380F8384087
:100AB000C0E90034042303610123C0E902448361D7
:100AC000C363C0E90944C0E90B4401F04FF808B121
:100AD000FFF756FF69460F48009401F0A7F908B1E7
:100AE000FFF74EFF0D4A062303A90A48CDE9032369
:100AF000002340F2FF72CDE9053204228DF8253043
:100B0000CDE9072300F082FC08B1FFF739FF0AB0F6
:100B100010BD00BF68020024002002400800900CB5
:100B200010B5B8B004461422002103A809F096FFBE
:100B3000C022002108A809F091FF22681A4B9A42AE
:100B400030D100234FF4002208A8CDE908234FF448
:100B50000033319301F09AFF08B1FFF711FF134BF7
:100B600003A91348D3F8D82042F02002C3F8D820B4
:100B7000D3F8D82002F020020192019AD3F8E020A5
:100B800042F00102C3F8E0204022D3F8E03003F045
:100B900001030293029B0323CDE903230023059362
:100BA00003F0D0F838B010BD0020024000440258D5
:100BB000000002581648012206214FF00D0C08B51E
:100BC000144BC0E90512022103600023C0E907C1EC
:100BD000052103828374C0E90233C0E90922C0E918
:100BE0000B22C0E90D33C0E90F32C0E91113C0E98F
:100BF0001313C0E91513C0E91732C0E9193104F025
:100C000013FA18B1BDE80840FFF7BABE08BD00BF2F
:100C1000CC02002400A0004010B5B8B00446142255
:100C2000002103A809F01AFFC022002108A809F03A
:100C300015FF2268204B9A423CD100234FF400421A
:100C400008A8CDE908234FF08053249301F01EFF3C
:100C500008B1FFF795FE194B002403A91848D3F8F3
:100C6000EC2042F48072C3F8EC20D3F8EC2002F4BC
:100C700080720192019AD3F8E02042F00102C3F899
:100C8000E0204FF4C052D3F8E03003F001030293A8
:100C9000029B0223CDE903230923CDE905440793F1
:100CA00003F050F813202246214604F0E7F8132001
:100CB00004F016F938B010BD00A0004000440258FE
:100CC0000000025808B516484FF4E133154AC0E950
:100CD000002300230C22C0E902330361C0E905238D
:100CE000C0E90733C0E9093305F096FD08B1FFF705
:100CF00047FE00210A4805F0CDFE08B1FFF740FE8F
:100D00000021074805F0E6FE08B1FFF739FE044868
:100D100005F0A5FE18B1BDE80840FFF731BE08BDDB
:100D20005C0400240010014070B5B8B006461422DF
:100D3000002103A809F092FEC022002108A809F0B2
:100D40008DFE3268374B9A4269D10122002308A8F0
:100D5000CDE9082301F09AFE08B1FFF711FE324BEE
:100D60004FF4404100253148D3F8F020304C42F098
:100D70001002C3F8F020D3F8F02002F01002019224
:100D8000019AD3F8E02042F00202C3F8E020D3F841
:100D9000E03003F002030293029B0223CDE9031328
:100DA000042303A90793CDE9055502F0CBFF2148A1
:100DB0002A23C4E9000340232046C4E902354FF446
:100DC0008063C4E90655C4E90435C4E9085503F055
:100DD00025FA08B1FFF7D4FD174A2923F467A66363
:100DE000164CC4E9002300234FF480622046C4E976
:100DF0000233C4E90423C4E90633C4E9083303F029
:100E00000DFA08B1FFF7BCFD00222520C6F880408E
:100E10001146A66304F032F8252004F061F838B0DA
:100E200070BD00BF00100140004402580004025889
:100E3000E403002410000240280002406C03002458
:100E4000244B4FF0040C07B5D3F8D820802122485A
:100E50004FF0C07E42F00102C3F8D820D3F8D8305A
:100E60001E4A03F001030193019B0023C0E9002304
:100E70004FF400720362C0E902124FF48062C0E9CD
:100E80000633C0E904230323C0E909C34FF4C003B8
:100E9000C0E90BE303F0C2F908B1FFF771FD0022CE
:100EA0000B20114603F0EAFF0B2004F019F8002292
:100EB0000C20114603F0E2FF0C2004F011F8002290
:100EC0000D20114603F0DAFF0D2003B05DF804EBAE
:100ED00004F006B800440258F00400244000024028
:100EE00008B50E4800230E4A7F2103614361C0E923
:100EF0000023FF22C0E90633C0E9021205F09EFE7E
:100F000008B1FFF73DFD0422B421044805F0E2FEDC
:100F100018B1BDE80840FFF733BD08BD68050024DF
:100F20000040005810B5B0B00446C0220021684609
:100F300009F094FD2268104B9A421AD100234FF415
:100F400080026846CDE900234FF400732D9301F031
:100F50009DFD08B1FFF714FD084A0320136F43F409
:100F6000004313670022114603F088FF032003F0BB
:100F7000B7FF30B010BD00BF004000580044025819
:100F800008B50848084B036000238380C0E9053397
:100F90000123036205F012FF18B1BDE80840FFF716
:100FA000EFBC08BD8C050024004C0258026882B0DA
:100FB000094B9A420DD1A3F50063D3F8E02042F427
:100FC0000022C3F8E020D3F8E03003F400230193BB
:100FD000019B02B0704700BF004C025808B50A4898
:100FE00080230A4AC0E9002300238360084BC360C2
:100FF000084B03612823436105F041FF18B1BDE8A8
:101000000840FFF7BDBC08BDB00500240010024831
:1010100074AB000864AB00080F4B07B502689A4236
:1010200017D10E4B4F20D3F8DC2042F01002C3F84A
:10103000DC200022D3F8DC30114603F010030193CA
:10104000019B03F01BFF4F2003B05DF804EB03F09E
:1010500047BF03B05DF804FB00100248004402588B
:1010600008B505482023036006F05AFA18B1BDE818
:101070000840FFF785BC08BD100600240C4B07B5DF
:10108000D3F8DC20502042F02002C3F8DC200022FC
:10109000D3F8DC30114603F020030193019B03F0E9
:1010A000EDFE502003B05DF804EB03F019BF00BF64
:1010B00000440258FEE7FEE7FEE7FEE7FEE7704762
:1010C000014805F063BE00BF6805002402F03CBD86
:1010D000014803F0CBBC00BFE4030024014803F047
:1010E000C5BC00BF6C030024014803F0BFBC00BFB7
:1010F000F0040024014804F011BB00BFCC0200241E
:10110000014804F0B9BC00BF54060024014804F0B3
:101110000BBF00BF5C040024014805F0D9BE00BF2E
:10112000B0050024014806F02DBA00BF10060024C7
:101130000C4B07B5D3F8F420042042F00202C3F8A8
:10114000F4200022D3F8F430114603F00203019397
:10115000019B03F093FE042003B05DF804EB03F061
:10116000BFBE00BF004402580F2810B504468AB025
:1011700002D901200AB010BD01460022192003F057
:101180007DFE192003F0ACFE164B694602A81C60D8
:10119000154B164CD3F8F02042F00102C3F8F020B2
:1011A000D3F8F03003F001030193019B01F058FBE9
:1011B00001F044FB0E4B4000236040F2E733E36054
:1011C0000C4BB0FBF3F00138002360602046236134
:1011D000A36004F045FD0028CBD1204604F00AFCB2
:1011E000C8E700BF0C000024004402585406002445
:1011F0000000014040420F002E4AD2F8883043F4EC
:101200007003C2F888302C4A136803F00F03062BD2
:1012100005D8136823F00F0343F007031360274B2F
:101220001A6842F001021A6000221A61244A196801
:101230000A4021491A600A68100705D50A6822F099
:101240000F0242F007020A6000221E499A61DA6129
:101250001A6299621C49D9621C4919635A639963DD
:10126000DA6319645A64196821F4802119601A66D6
:10127000174B1B686FF30F03B3F1005F03D2154BDD
:101280000122C3F808210D4BD3F8D420D2040FD487
:10129000D3F8D42043F2D20142F48052C3F8D420D0
:1012A0000D4A1160D3F8D42022F48052C3F8D42020
:1012B000704700BF00ED00E00020005200440258DB
:1012C0007FEDF6EA000202020000FF018002010148
:1012D0000010005C0080005100400052806800F067
:1012E000010070478068C0F3800070470368414A7E
:1012F00093422DE9F04104460E461CD03E4802F5CB
:1013000040723E49834218BF0A4625699768082DF6
:1013100007F01F0722D040F22122FA40D1070CD556
:10132000DB6813F0010F18D0636D012043F0200338
:101330006365BDE8F081324AE7E72E4A93420AD05E
:101340002D4802F540722D49834218BF0A46936822
:1013500013F4404FE7E72A4AF9E7042503F008FEB3
:10136000804623681A682A4225D0626D42F40072D2
:101370006265DA6812F4406F0FD1627D6AB91A684B
:1013800016070AD5626D22F480726265626DD00420
:1013900003D4626D42F001026265174A934204D1A0
:1013A00040F22122FA40D1071BD5DA68082D1BD163
:1013B0001D600020BDE7721CD4D003F0D9FDA0EB66
:1013C0000800B04201D8002ECBD123681B682B4007
:1013D000C7D1626D032084F8503042F00402626588
:1013E000A7E7044AD268E1E75204E2D40C221A606B
:1013F000DFE700BF002002400021024000630258E6
:10140000002302400368186C704700000023F7B502
:101410000193054690F85030012B00F0F48101242F
:10142000036880F850401846FFF75CFF002840F042
:1014300020810A68002A4FEA926007DBC2F3130694
:10144000002E77D18440DA692243DA614C6803F1D7
:10145000300C1F2700F01F00A60904F01F0406F03F
:101460000C06A740A0405CF8062022EA07020243CF
:1014700018464CF80620FFF735FF9A6802F008027C
:1014800002434BD1086803F114070726C40DC0F3CB
:10149000045004F0040486403A5922EA06028E6899
:1014A000864032433A519A4A4869126802F07042C3
:1014B000B2F1805FDA6846D1C2F3820252000F694E
:1014C00090400C68042F46D003F1600604F0F84405
:1014D00056F8272002F000422243024346F8272014
:1014E000487E0C69471E56F82420784222F00042BC
:1014F000784142EAC07246F824200A7E0C6902F163
:10150000FF3C186904F01F04DCF1000220F4F040F5
:1015100042EB0C02D202A24002431A611846FFF7C6
:10152000DDFE024600283DD00020002385F8503023
:1015300003B0F0BD92FAA2F2B2FA82F2012402F0F4
:101540001F0294407FE712F0100FDA68B4D05208FF
:1015500002F00802B3E71A6EA00602F0F842B2EBFE
:10156000846F03D11A6E22F000421A665A6E02F09E
:10157000F842904203D15A6E22F000425A669A6EA7
:1015800002F0F842904203D19A6E22F000429A662D
:10159000DA6E02F0F8429042C0D1DA6E22F00042D8
:1015A000DA66BBE70C68CE68C4F31300D3F8C0104A
:1015B00006F0180721EA00015648F8402040014390
:1015C000C3F8C01054498E4234D154498B4256D18D
:1015D00053498C427CD053498C427BD052498C4237
:1015E0007AD052498C4279D001F1866110318C4217
:1015F00076D04F498C4201F1042101F5401171D0A0
:101600008C4261D001F1866101F500618C4259D0B4
:1016100048498C425AD048484849844208BF0A4643
:10162000C2F3130100295FD1910E01228A40D969CA
:101630000A43DA61002CBFF677AF38498B425DD0A0
:101640003F4E404A4048B34218BF02468B42926820
:1016500002D03B498B4253D13048FFF73FFE014651
:101660003748FFF73BFE01430CBF01200020002854
:101670007ED16B6D012043F020036B6555E7304947
:101680008B42CDD126498C4222D026498C4221D092
:1016900025498C4220D025498C421FD001F186611A
:1016A00010318C421CD022498C421BD001F1042104
:1016B00001F540118C4201F1866101F5006103D012
:1016C0008C42A8D1214AABE7214AA9E7214AA7E7E2
:1016D0000122A5E7204AA3E7204AA1E7204A9FE785
:1016E000204A9DE7204A9BE792FAA2F2B2FA82F2E0
:1016F000012102F01F0201FA02F298E7114AA5E760
:101700001A48FFF7EBFDB0FA80F04009AFE700BFE1
:101710000010005CFFFF0F000000FF4700200240A8
:1017200002003004040060080800900C1000C01093
:101730000004002A000021430000844B0000B84F41
:10174000002102400023024000630258002090362E
:101750000010603200005247400020198000501DE8
:10176000000180210002B0250008302E00600258E0
:10177000264802F0E07184421ED114023FF5D4AE37
:10178000234A93427FF4D0AED2F8083323F0E073BB
:101790000B4343F40003C2F808331E4B1E4A1B6878
:1017A000B3FBF2F301335B000193019B002B3FF489
:1017B000BBAE019B013BF7E71848844210D1D00132
:1017C0003FF5B2AE124A93427FF4AEAED2F8083380
:1017D00023F0E0730B4343F08073C2F80833A3E6B1
:1017E0000F4884427FF4A0AE52023FF59DAE084AF6
:1017F00093427FF499AED2F8083323F0E0730B43A1
:1018000043F48003E9E7022092E600BF000084CBA6
:101810000060025804000024400D0300000052C77D
:101820000000B8CF026870B504461046FFF756FDB9
:1018300008B1002070BD9168214B194209D0636D39
:10184000012043F010036365A36D43F00103A3651A
:10185000F0E7936823F0004323F03F0343F00103D4
:10186000936003F085FB2268164B054616499A42A1
:101870000CD003F5407315488A4218BF03468A42CC
:101880009B6801D1D906D4D1114E13E0114BF6E774
:101890001046FFF723FD20B99368334043F001035E
:1018A000936003F065FB401B022803D923681B6883
:1018B000DA07C4D522681368DB07E9D5B9E700BFAA
:1018C0003F000080002002400021024000630258D7
:1018D000C0FFFF7F002302403A4B70B5044600680A
:1018E000984255D0384903F54073384A884218BFAA
:1018F00013469E68FFF7F6FC054600285FD194F872
:101900005030012B5BD00123204684F85030FFF784
:1019100089FF002850D1636D06F01F012A4A23F485
:10192000706323F0010343F480736365236893427B
:1019300030D189BBA2F58072656D25F4801565658F
:10194000656D15F4805502D0A56D25F00605A565D9
:101950001C2593421D604FF0000584F8505005D0BF
:1019600040F2212525FA01F1C90717D5DA6892015D
:1019700005D5626D22F4405242F4805262659A6845
:1019800022F0004222F03F0242F004029A6070BD51
:101990000F4BAEE71A46CFE70A4AD1E7636D43F42F
:1019A00080136365D3689B01F1D5636D23F44053C5
:1019B00043F480536365EAE784F85050E7E7022078
:1019C000E5E700BF0020024000210240006302580A
:1019D00000230240026838B5044610469368FFF7BA
:1019E0007DFC08B9002038BD9907FBD4936803F04B
:1019F0000D03012B19D1936823F0004323F03F031B
:101A000043F0020393600323136003F0B1FA054629
:101A100023689B68DB07E5D503F0AAFA401B022880
:101A2000F6D923689B68DA07F2D5636D012043F08D
:101A300010036365A36D43F00103A365D3E70000C2
:101A400038B5434A05460368934203D002F58072D5
:101A5000934225D13F4B9B6813F4403F14BF0123B1
:101A60000023FBB94FF40020002101F003FF6B6855
:101A70000446B3F5101F4AD03FD8B3F5E01F44D059
:101A800036D8B3F5801F08D02CD8B3F5002F04D07A
:101A900023F40022B2F5802F16D19B0C5B000FE0DF
:101AA0002D4BD8E700F096FE6B680446B3F5003F77
:101AB00005D0B3F5403F06D0B3F5803F04D11B0CF1
:101AC000B4FBF3F400E0840803F06AFA41F2030384
:101AD00098422B6823D8214A94429A681BD942F431
:101AE00080721AE0B3F5A01FD7D0B3F5C01FD3E7BB
:101AF000B3F5001FE8D14409E6E7B3F5201F08D08D
:101B0000B3F5301FE0D1040ADEE70409DCE78409FD
:101B1000DAE7C409D8E722F480729A6038BD104A27
:101B2000944203D89A6822F44072F6E70D4A944230
:101B300003D89A6822F44072D1E70B4A94429A681B
:101B400096BF22F4407242F4407242F40072E4E71D
:101B5000002002400023024000630258002D3101A2
:101B600021BCBE0041787D0181F0FA02002373B5EB
:101B700004460193002800F0ED80456D25B9FEF77D
:101B8000CFFFA56584F8505023689A68900005D56A
:101B90009A6822F0204222F03F029A609A68D100AF
:101BA00040F19E809A68D20000F1B080626D0125FC
:101BB00042F010026265A26D42F00102A265184671
:101BC000FFF790FB626D02F01002024340F0BE800E
:101BD000626D184622F4817242F002026265FFF7DC
:101BE0007DFB88B95C4A934204D002F5807293422F
:101BF00040F08E805848FFF771FB03465748FFF7C7
:101C00006DFB034300F0928003F0CAF941F2030335
:101C1000A2689842217F607D236B40F28980102A60
:101C200040F086800A0442EA4032134343F01C032A
:101C3000012902BF226A02F1FF3243EA4243626A8B
:101C400022B102F47872A16A0A431343226844491C
:101C5000D068014010461943D160FFF743FB9368F9
:101C600003F00803034327D1D368217D23F4804385
:101C700023F0030343EA8133E16A0B43D36094F812
:101C80003830012B5AD1E36B1069591ED4E9103654
:101C9000334343EA0143A16C0B43324901400B43F8
:101CA00043F00103136120461369616B23F0704315
:101CB0000B431361FFF7C4FEE3682268012B41D197
:101CC000116BA36921F00F01013B0B431363636D9B
:101CD00023F0030343F001036365284602B070BD9F
:101CE0009A68214922F0104222F03F0242F08052CD
:101CF0009A601E4A1268B2FBF1F201320192019A17
:101D0000002A3FF44FAF019A013AF7E7002556E762
:101D10001748FFF7E3FA00287FF476AF154A936877
:101D2000616823F47C130B4393606DE7124AF6E776
:101D3000134343EA403343EA014379E7136923F04D
:101D40000103AFE7136B23F00F03BFE7636D43F0AD
:101D5000100363650125C0E7002002400021024016
:101D600003C0F0FF1EF800FC400D03000400002437
:101D7000006002580063025800230240806800F0AF
:101D8000010070478068C0F380007047002373B57E
:101D90000193044690F850300D461646012B3ED074
:101DA000012380F85030FFF715FE636D002833D112
:101DB00023F48853226806F0804605F4803523F02A
:101DC000020343F002036365164B91680B403343F3
:101DD0002B4343F0004393609368002B12DA019B7E
:101DE000013301930199104B9942F5D3636D0120A2
:101DF00023F0120343F010036365002384F850308E
:101E000002B070BD636D23F0030343F0010363650B
:101E1000002384F85030F3E743F01003F7E7022083
:101E2000EEE700BFC0FFFE3F00F8C32570B590F895
:101E300050209AB00346012A55D001222B4C80F83D
:101E4000502000201D681690A54217900ED12848FA
:101E5000FFF798FF04462846FFF794FF20430ED073
:101E6000596D104641F02001596524E0596D83F801
:101E70005000104641F0200159651AB070BD0C6841
:101E80001C4AE4B190684E6820F4404030439060B2
:101E90002846FFF773FF05461548FFF76FFF054318
:101EA00008D1896890680C4320F4716121F00F011A
:101EB0000C4394600020002283F85020DDE79168F5
:101EC000284621F440419160FFF758FF0146084839
:101ED000FFF754FF0143EDD1916821F4716121F0C6
:101EE0000F019160E6E70220C7E700BF0020024033
:101EF000002102400023024070B50446002872D041
:101F00000368DD075CD42368980700F1AB80236881
:101F1000D80627D59B4A1369916A03F03803082B2A
:101F200007D0182B40F0018101F00303012B40F092
:101F3000FC801368D90502D5E369802B53D103F0E7
:101F40002FF841F20303216A98428E4B00F2E6809B
:101F50005A68202922F0F8420CBF42F0804242EA3F
:101F600081625A602368180700F12181236899066D
:101F700000F1428123685D071CD5834D2B6843F433
:101F800080732B6002F0F4FF06462B68DA0540F1FF
:101F90005881A3687B4D012B40F05A812B6F43F091
:101FA00001032B6702F0E4FF764E0546336F9B0773
:101FB00040F17381616A002940F0778100202BE0B5
:101FC000704A1369916A03F03803102B05D0182B5F
:101FD0000BD101F00303022B07D11368990392D5AB
:101FE0006368002B8FD1012016E06368654DB3F55F
:101FF000803F12D12B6843F480332B6002F0B8FF8E
:10200000604E054633689A033FF57DAF02F0B0FF9E
:10201000401B6428F6D9032070BDA3B92B6823F4B4
:1020200080332B602B6823F480232B6002F0A0FF09
:1020300006462B689B037FF566AF02F099FF801B75
:102040006428F6D9E7E7B3F5A02F2B6803D143F452
:1020500080232B60CEE723F480332B602B6823F49E
:102060008023CAE74749E2680B69886A13F038039E
:1020700003D0182B2AD1850728D10B68580701D522
:10208000002AB0D03F4D2B6823F0190313432B6077
:1020900002F06EFF06462B68590711D502F080FF4B
:1020A00041F20303226998426B6822D823F47C33FF
:1020B000402A0CBF43F4003343EA02336B6026E747
:1020C00002F056FF801B0228E5D9A4E72D4D2B68AE
:1020D000A2B123F0190313432B6002F049FF064617
:1020E0002B685A07DAD402F043FF801B0228F7D985
:1020F00091E723F0FE4343EA0263DFE723F00103A5
:102100002B6002F035FF06462B685B077FF5FFAEBC
:1021100002F02EFF801B0228F6D97CE7DA6822F055
:102120007C5242EA0162DA601CE7E369154D6BB349
:102130002B6843F080032B6002F01AFF06462B68E1
:10214000DA0511D502F02CFF41F20303226A98420E
:1021500010D86B68202A23F0F8430CBF43F080436B
:1021600043EA82636B60FDE602F002FF801B0228F7
:10217000E5D950E7EB6823F07C5343EA0263EB6058
:10218000F0E600BF00440258004802582B6823F0D4
:1021900080032B6002F0ECFE06462B68DB057FF522
:1021A000E1AE02F0E5FE801B0228F6D933E7636951
:1021B000A34D83B16B6F43F001036B6702F0D8FE50
:1021C00006466B6F9A073FF5D1AE02F0D1FE801B39
:1021D0000228F6D91FE76B6F23F001036B6702F04B
:1021E000C7FE06466B6F9B077FF5C0AE02F0C0FED0
:1021F000801B0228F6D90EE7A369914D83B12B68A5
:1022000043F480532B6002F0B3FE06462B6898041B
:102210003FF5B0AE02F0ACFE801B0228F6D9FAE61C
:102220002B6823F480532B6002F0A2FE06462B6835
:1022300099047FF59FAE02F09BFE801B0228F6D921
:10224000E9E602F095FE801B64287FF69EAEE2E68A
:10225000ABB92B6F23F001032B672B6F23F0040323
:102260002B6702F085FE06462B6F98077FF5A2AE1E
:1022700002F07EFE801BB0F57A7FF5D9CBE6052B08
:102280002B6F03D143F004032B6787E623F0010390
:102290002B672B6F23F0040383E602F069FE401BDB
:1022A000B0F57A7F7FF682AEB5E6654D2B6903F017
:1022B0003803182B78D02B68022923F080732B6009
:1022C00065D102F055FE06462B68990159D4AB6AD8
:1022D000A26A23F47C7323F003031343E26A43EA04
:1022E0000213AB62636BA26B013B013A5B02120407
:1022F0009BB202F4FE021343226B013AC2F30802BE
:102300001343E26B013A120602F0FE4213432B63C1
:10231000EB6A23F00103EB626B6BA26C6FF3CF03EC
:1023200043EAC2036B63EB6A226C23F00C03134392
:10233000EB62EB6A626C23F002031343EB62EB6A1D
:1023400043F48033EB62EB6A43F40033EB62EB6AF5
:1023500043F48023EB62EB6A43F00103EB622B68EA
:1023600043F080732B6002F003FE354D04462B686A
:102370009A013FF523AE02F0FBFD001B0228F6D9BF
:1023800049E602F0F5FD801B02289DD943E602F0E4
:10239000EFFD04462B689B017FF510AE02F0E8FDCF
:1023A000001B0228F6D936E60129AA6A2B6B3FF4F6
:1023B0001AAE02F00301A06A81427FF414AEC2F3A8
:1023C0000512E16A8A427FF40EAE226BC3F3080164
:1023D000013A91427FF407AE626BC3F34621013AA2
:1023E00091427FF400AEA26BC3F30641013A9142E1
:1023F0007FF4F9ADE26BC3F30663013A93427FF4D5
:10240000F2AD6B6BA26CC3F3CC039A423FF4D6AD32
:102410000B4DEB6A23F00103EB6202F0A9FD0646C7
:1024200002F0A6FDB042FBD06B6BA26C6FF3CF0342
:1024300043EAC2036B63EB6A43F00103EB62BDE561
:1024400000440258494B1A6902F03802102A30B58C
:1024500000F08880182A0CD0002A40F085801A6885
:10246000434812F0200F03D01B68C3F3C103D840C8
:1024700030BD996A9D6ADC6A15F47C7FC5F305104E
:102480005A6BF5D0C2F3CC0204F0010401F0030151
:1024900007EE900A6243B7EE006A0129B8EEE77AC8
:1024A00006EE902AFAEEE96A4ED002293ED00029C3
:1024B0004AD11A68920627D519682D4AC1F3C1017D
:1024C0001B6BCA40C3F3080307EE902AF8EEE75AE5
:1024D000C5EE877A07EE103AB8EEC77A37EE267A5D
:1024E00037EE067A67EE877A204B1B6BC3F34623E1
:1024F000013307EE103AF8EEC76A87EEA67AFCEED3
:10250000C77A17EE900AB3E71B6BC3F3080307EE15
:10251000903AF8EEE77A77EEA67A77EE867A9FED34
:10252000156AC6EE076A67EEA67ADDE71B6BC3F392
:10253000080307EE903AF8EEE77A77EEA67A77EEA0
:10254000867A9FED0D6AECE71B6BC3F3080307EE79
:10255000903AF8EEE77A77EEA67A77EE867A9FEDF4
:10256000076ADEE7064883E7064881E70044025829
:102570000090D0030024744C0024F44A0024744AD0
:1025800000127A0000093D002DE9F0410D46044695
:1025900010B90120BDE8F081884A136803F00F03E9
:1025A0008B42C0F0938023685F0700F19B801E0779
:1025B0000BD583496069CA6902F07002904204D960
:1025C000CA6922F070020243CA61D8060BD57C4961
:1025D000A069CA6902F4E062904204D9CA6922F48F
:1025E000E0620243CA6199060BD57549E0690A6A3F
:1025F00002F07002904204D90A6A22F0700202438B
:102600000A629A070BD56E49E0688A6902F00F02E8
:10261000904204D98A6922F00F0202438A61DF07DF
:102620006ED423689E0700F1A18064490A6802F015
:102630000F02AA4200F2A880580700F1B1801907E2
:102640000BD55F496069CA6902F07002904204D2FA
:10265000CA6922F070020243CA61DA060BD55849F2
:10266000A069CA6902F4E062904204D2CA6922F405
:10267000E0620243CA619B060BD5514AE169136AC5
:1026800003F07003994204D2136A23F070030B43E2
:102690001362FFF7D7FE4A494A4A8B69C3F3032303
:1026A000D35C03F01F03D8408B6903F00F03D35CA6
:1026B000454A03F01F0320FA03F31360434B1860ED
:1026C000434BBDE8F0411868FEF74EBD136823F098
:1026D0000F030B431360136803F00F038B427FF467
:1026E00058AF60E7364920698A6902F0700290426B
:1026F0007FF65DAF8A6922F0700202438A6156E775
:102700002F4BA1689A6922F470620A439A6161684A
:102710001A6802291DD112F4003F3FF43AAF1A693A
:1027200041F28838264F22F007020A431A6102F06C
:102730001FFC06463B69626803F03803B3EBC20F27
:102740003FF46FAF02F014FC801B4045F2D9032028
:1027500020E7032902D112F0007FDEE7012902D130
:1027600012F4807FD9E712F0040FD6E71449E0682D
:102770008A6902F00F029042BFF457AF8A6922F0D3
:102780000F0202438A6150E70A6822F00F022A43CF
:102790000A600A6802F00F02AA427FF4FAAE4BE721
:1027A000074920698A6902F070029042BFF447AF7E
:1027B0008A6922F0700202438A6140E700200052D9
:1027C0000044025884AB00080000002404000024E8
:1027D0000C00002408B5FFF735FE0B4A0B4993693E
:1027E0009269C3F3032302F00F02CB5C03F01F03D3
:1027F00020FA03F3885C064A00F01F0023FA00F079
:102800001060044A136008BD0044025884AB0008FD
:10281000000000240400002408B5FFF7DBFF054B8F
:10282000054ADB69C3F30213D35C03F01F03D840EE
:1028300008BD00BF0044025884AB000808B5FFF78C
:10284000C9FF054B054ADB69C3F30223D35C03F0E0
:102850001F03D84008BD00BF0044025884AB0008E5
:102860003F230360114B1A6902F0070242609A6924
:1028700002F4706282609A6902F00F02C2609A6983
:1028800002F070020261DA6902F070024261DA69F4
:1028900002F4E06282611B6A03F07003C361044BBF
:1028A0001B6803F00F030B60704700BF0044025821
:1028B00000200052F8B5394C06460D46A36A03F0D5
:1028C0000303032B67D0236823F08063236002F0A7
:1028D0004FFB074623681A0149D4A36A326823F4E0
:1028E0007C3343EA0233A362B368F268013B013AE6
:1028F0005B0212049BB202F4FE0213437268013AB7
:10290000C2F3080213433269013A120602F0FE4292
:102910001343A363E36A726923F0C0031343E362C2
:10292000E36AB26923F020031343E362E36A23F00E
:102930001003E362E36BF2696FF3CF0343EAC20370
:10294000E363E36A43F01003E362E36AB5B943F477
:102950000023E362114C236843F08063236002F09C
:1029600007FB054623681B010FD5002005E002F098
:10297000FFFAC01B0228ADD90320F8BD012D0CBF02
:1029800043F4801343F40013E3E702F0F1FA401B31
:102990000228E7D9F0E70120EFE700BF0044025822
:1029A000F8B5394C06460D46A36A03F00303032B22
:1029B00067D0236823F08053236002F0D9FA0746DA
:1029C00023689A0049D4A36A326823F07C7343EAEF
:1029D0000253A362B368F268013B013A5B0212043E
:1029E0009BB202F4FE0213437268013AC2F308027A
:1029F00013433269013A120602F0FE421343236484
:102A0000E36A726923F440631343E362E36AB269E1
:102A100023F400731343E362E36A23F48073E362F5
:102A2000636CF2696FF3CF0343EAC2036364E36A42
:102A300043F48073E362E36AB5B943F48003E3626D
:102A4000114C236843F08053236002F091FA05464D
:102A500023689B000FD5002005E002F089FAC01B17
:102A60000228ADD90320F8BD012D0CBF43F40003AB
:102A700043F08073E3E702F07BFA401B0228E7D9BA
:102A8000F0E70120EFE700BF0044025803682DE99A
:102A9000F041054618011ED5AB6EB3F5001F2BD0D3
:102AA0000FD8D3B1B3F5801F1DD001262B68D905EF
:102AB00051D5AB6D042B4DD8DFE803F0243F4629F8
:102AC0002900B3F5401FF0D1854AA96E136D23F498
:102AD00040130B4313650026E8E7814AD36A43F4A9
:102AE0000033D362F0E7022105F10800FFF7E2FEB0
:102AF00006460028DAD1E7E7022105F12800FFF7B2
:102B00004FFFF5E7764AD36A43F40033D362344685
:102B10001CBB734AA96D136D23F007030B431365A8
:102B20002B689A0528D5EB6D802B43D017D8A3B31B
:102B3000402B38D0012634461EE0002105F1080064
:102B4000FFF7B8FE0446E3E7002105F12800FFF790
:102B500027FFF7E701263446E2E72646E0E7C02BE9
:102B600002D0B3F5807FE5D154BB5D4AE96D136DAA
:102B700023F4E0730B4313652B685B0531D5D5F85F
:102B8000A830B3F5800F49D01CD8002B39D0B3F54D
:102B9000001F3CD00126344623E0514AD36A43F457
:102BA0000033D362E0E7002105F10800FFF782FE61
:102BB0000446D9E7002105F12800FFF7F1FEF7E709
:102BC0002646D9E7B3F5C00F02D0B3F5000FE1D127
:102BD00054BB434AD5F8A810936D23F460030B430C
:102BE00093652B681F0530D5D5F8AC30B3F1007F65
:102BF00045D01BD8B3B3B3F1807F39D0012634461A
:102C000023E0374AD36A43F40033D362E0E700217C
:102C100005F10800FFF74EFE0446D9E7002105F153
:102C20002800FFF7BDFEF7E72646DAE7B3F1407F5D
:102C300002D0B3F1806FE1D13CBB294AD5F8AC108A
:102C4000936D23F0E0630B4393652B68980128D5BF
:102C5000EB6C202B3BD01AD8DBB1102B31D00126E6
:102C600034461EE01E4AD36A43F40033D362E3E7DE
:102C7000002105F10800FFF71DFE0446DCE70021F6
:102C800005F12800FFF78CFEF7E72646DDE7302B3D
:102C9000E5D11CBB124AE96CD36C23F030030B4323
:102CA000D3642B68D9042CD52B6EB3F5005F74D098
:102CB00018D8002B64D0B3F5805F67D00126344666
:102CC0001FE0074AD36A43F40033D362E1E70221ED
:102CD00005F10800FFF7EEFD0446DAE72646E0E7D7
:102CE00000440258B3F5405F02D0B3F5804FE5D100
:102CF000002C58D19C4A296E136D23F4E0430B43FA
:102D000013652B689A040BD56B6EB3F5003F64D046
:102D10004BD8002B51D0B3F5803F57D00126344615
:102D20002B685B040CD5D5F8B030B3F1005F75D0DB
:102D30005BD8002B61D0B3F1805F68D001263446A8
:102D40002B681F0411D52B6FB3F1805F6ED0B3F1E8
:102D5000005F71D0002B76D1002C77D1824A296F89
:102D6000136D23F040530B4313652B68D8017DD5B9
:102D7000AB6C032B00F2BF80DFE803F06F6AB66F25
:102D8000794AD36A43F40033D362B1E7002105F1F5
:102D90000800FFF78FFD0446AAE7002105F128008F
:102DA000FFF7FEFDF7E72646ABE723F48032B2F5E6
:102DB000802F02D0B3F5403FB0D1A4B96A4A696E02
:102DC000136D23F4E0230B431365A9E7012105F1FB
:102DD0000800FFF76FFD0446EFE7012105F1280029
:102DE000FFF7DEFDF7E726469AE723F08052B2F1BF
:102DF000804F02D0B3F1405FA0D1ACB95A4AD5F8A8
:102E0000B010936D23F0E0430B43936598E70121E5
:102E100005F10800FFF74EFD0446EEE7012105F13C
:102E20002800FFF7BDFDF7E7264689E74E4AD36A3B
:102E300043F40033D3628FE7012105F10800FFF767
:102E400039FD044688E7012634468EE726468CE79E
:102E5000454AD36A43F40033D362002C4ED1424A30
:102E6000A96CD36C23F003030B43D3642B68590282
:102E70004ED53E4F3B6843F480733B6002F078F8D8
:102E800080463B68DA053BD5002C73D1364BD5F82C
:102E9000B4001A6F424012F4407F0BD01A6F196FC2
:102EA00022F4407241F480311967196F21F48031A6
:102EB00019671A67B0F5807F41D0D5F8B4302A4938
:102EC00003F44072B2F5407F49D10869284A20F4E2
:102ED0007C5002EA131202430A61C3F30B03224A35
:102EE000116F0B43136713E0022105F10800FFF790
:102EF000E1FC0446B1E701263446B7E72646B5E7CC
:102F000002F036F8A0EB08006428BAD9032634464C
:102F10002B68D80708D5EB6F102B43D02CD88BB378
:102F2000082B38D0012634462B68990750D5AB6F53
:102F3000052B63D8DFE803F0443E5C44444402F0D0
:102F400017F8DFF824800746D8F870309B07B4D410
:102F500002F00EF8C01BB0F57A7FF5D9D6E70A6902
:102F600022F47C52B8E700BF0044025800480258DF
:102F7000CFFFFF002646CBE723F00802202A01D02E
:102F8000182BCFD1A4B9204AE96F536D23F0380331
:102F90000B435365C8E7012105F10800FFF78AFCE0
:102FA0000446EFE7012105F12800FFF7F9FCF7E7F8
:102FB0002646B9E7012105F10800FFF77BFC04462E
:102FC000FCB9114AA96F536D23F007030B435365F6
:102FD0002B685A072BD5D5F89430052B00F26E815B
:102FE000DFE813F01A00140066011A001A001A0034
:102FF000012105F12800FFF7D3FCE0E70126344664
:10300000E6E72646E4E700BF00440258012105F147
:103010000800FFF74FFC0446002C40F05281AA4AFA
:10302000D5F89410936D23F007030B4393652B6839
:103030009B0610D5D5F89030B3F1005F00F06081A9
:1030400000F24481002B00F04A81B3F1805F00F070
:103050005081012634462B685F0610D5D5F89C3088
:10306000B3F5006F00F06E8100F25281002B00F08A
:103070005881B3F5806F00F05E81012634462B68DD
:10308000180610D5D5F8A030B3F5804F00F07C813C
:1030900000F26081002B00F06681B3F5005F00F064
:1030A0006C81012634462B68190714D5D5F8843075
:1030B000B3F5805F07D1022105F12800FFF770FC0E
:1030C000002818BF0126804AD5F88410536D23F4D8
:1030D00040530B4353652B68DA0614D5D5F8983066
:1030E000B3F5807F07D1022105F12800FFF758FCD6
:1030F000002818BF0126744AD5F89810936D23F460
:1031000040730B4393652B681B031BD5D5F8A410A4
:10311000B1F5803F00F04081B1F5003F07D00029B4
:1031200040F0408105F10800FFF7C4FB0446002C85
:1031300040F03B81644AD5F8A410936D23F44033EA
:103140000B4393652B685F030FD5D5F88830B3F533
:10315000001F00F03B81B3F5401F00F02D81B3F557
:10316000801F00F02481012634462B68D80309D53E
:103170002B6D002B00F03381B3F5803F00F03D81D3
:10318000012634462B68990007D5022105F1280055
:10319000FFF706FC002818BF0126D5E900319A0385
:1031A00040F14381D5F88000B0F5807F00F03F8189
:1031B00000F22C81002800F02F810124DF0206D5C7
:1031C00041486E6F026D22F0004232430265DE001C
:1031D00007D53D48D5F8B860026922F480423243F1
:1031E0000261980206D53848EE6E026D22F08072B8
:1031F000324302655A0009D5334A106920F4004071
:1032000010611069D5F8BC6030431061002B06DAFC
:103210002D486E6DC26C22F040523243C2641F02D0
:1032200007D5294AD5F88C00536D23F44003034396
:103230005365CE0706D5002105F10800FFF73AFBDC
:10324000074600B927466B689C0706D5012105F1A2
:103250000800FFF72FFB064600B93E466B6858078B
:1032600006D5022105F10800FFF724FB044600B94A
:1032700034466B68190706D5002105F12800FFF7D1
:103280008FFB064600B926466B68DA0606D5012193
:1032900005F12800FFF784FB044600B934466B684B
:1032A0009B0600F1CA80201E18BF0120BDE8F081F6
:1032B000012105F12800FFF773FBACE60126344637
:1032C000B5E62646B3E600BF0044025823F080521C
:1032D000B2F1804F03D0B3F1405F7FF4BAAEACB926
:1032E0005B4AD5F89010536D23F0E0430B435365D0
:1032F000B1E6002105F10800FFF7DCFA0446EEE72D
:10330000022105F12800FFF74BFBF7E72646A2E66E
:1033100023F48062B2F5805F03D0B3F5406F7FF491
:10332000ACAEACB94A4AD5F89C10936D23F4E05387
:103330000B439365A3E6002105F10800FFF7BAFAF5
:103340000446EEE7022105F12800FFF729FBF7E725
:10335000264694E623F40052B2F5004F03D0B3F5AD
:10336000C04F7FF49EAEACB9394AD5F8A010936D2A
:1033700023F460430B43936595E6002105F10800B3
:10338000FFF798FA0446EEE7022105F12800FFF75F
:1033900007FBF7E7264686E6022105F12800FFF73E
:1033A000FFFAC3E601263446CCE62646CAE6284A9A
:1033B000D36A43F40033D3627CB9254AD5F8881028
:1033C000536D23F440130B435365CEE6012105F101
:1033D0002800FFF7E5FA0446EEE72646C5E61C4A54
:1033E000D36A43F40033D36274B9194A296DD36C9C
:1033F00023F480330B43D364C4E6022105F10800B3
:10340000FFF758FA0446EFE72646BBE620F4807241
:10341000B2F5007F7FF4D1AE002C7FF4CFAE0C4C20
:10342000626D22F44072024362653446C6E6084F7C
:10343000FA6A42F40032FA62EEE7022105F128004E
:10344000FFF7AEFA00283FF42EAF01202EE700BFB1
:103450000044025808B5FFF7BDF9054B054A1B6A41
:10346000C3F30213D35C03F01F03D84008BD00BFB1
:103470000044025884AB00084F4970B58C6A8E6ACC
:10348000CD6A16F47C3FC6F30533CA6B00F090801A
:1034900007EE903AC2F3CC03C5F3001204F0030424
:1034A000B8EEE77A5343012CB7EE006A06EE903A85
:1034B000FAEEE96A6ED0022C5ED0002C6AD10B685D
:1034C0009B0647D50A688B6BC2F3C1013B4AC3F325
:1034D0000803CA4007EE902AF8EEE75AC5EE877A4D
:1034E00007EE103AB8EEC77A37EE267A37EE067A4C
:1034F00067EE877A304A936BC3F3462307EE103AA0
:10350000B8EEC77A37EE067AC7EE876AFCEEE66A4F
:10351000C0ED006A936BC3F3064307EE103AB8EEB2
:10352000C77A37EE067AC7EE876AFCEEE66AC0ED28
:10353000016A936BC3F3066306EE903AF8EEE66A0F
:1035400076EE866A87EEA67AFCEEC77A17EE903A98
:10355000836070BD8B6BDFED1A5AC3F3080307EE6F
:10356000903AF8EEE77A77EEA67A77EE867AC5EEAD
:10357000876A67EEA67ABDE78B6BDFED125AC3F35D
:10358000080307EE903AF8EEE77A77EEA67A77EE40
:10359000867AECE78B6BDFED0C5AC3F3080307EE7A
:1035A000903AF8EEE77A77EEA67A77EE867ADEE75B
:1035B000C0E90033CCE700BF004402580090D003BC
:1035C0000024744C0024F44A0024744A4F4970B516
:1035D0008C6A8E6ACD6A16F07C7FC6F305534A6CFE
:1035E00000F0908007EE903AC2F3CC03C5F30022BE
:1035F00004F00304B8EEE77A5343012CB7EE006AF7
:1036000006EE903AFAEEE96A6ED0022C5ED0002CFB
:103610006AD10B689B0647D50A680B6CC2F3C101DF
:103620003B4AC3F30803CA4007EE902AF8EEE75A74
:10363000C5EE877A07EE103AB8EEC77A37EE267AEB
:1036400037EE067A67EE877A304A136CC3F3462367
:1036500007EE103AB8EEC77A37EE067AC7EE876AF9
:10366000FCEEE66AC0ED006A136CC3F3064307EE96
:10367000103AB8EEC77A37EE067AC7EE876AFCEEE4
:10368000E66AC0ED016A136CC3F3066306EE903A76
:10369000F8EEE66A76EE866A87EEA67AFCEEC77AE0
:1036A00017EE903A836070BD0B6CDFED1A5AC3F3CE
:1036B000080307EE903AF8EEE77A77EEA67A77EE0F
:1036C000867AC5EE876A67EEA67ABDE70B6CDFEDFA
:1036D000125AC3F3080307EE903AF8EEE77A77EE52
:1036E000A67A77EE867AECE70B6CDFED0C5AC3F323
:1036F000080307EE903AF8EEE77A77EEA67A77EECF
:10370000867ADEE7C0E90033CCE700BF0044025808
:103710000090D0030024744C0024F44A0024744A1E
:103720004F4970B58C6A8E6ACD6A16F47C7FC6F3F9
:1037300005134A6B00F0908007EE903AC2F3CC0379
:1037400005F0010204F00304B8EEE77A5343012CBC
:10375000B7EE006A06EE903AFAEEE96A4ED0022C15
:103760005ED0002C6AD10B689B0667D50A680B6B8C
:10377000C2F3C1013B4AC3F30803CA4007EE902AD3
:10378000F8EEE75AC5EE877A07EE103AB8EEC77A38
:1037900037EE267A37EE067A67EE877A304A136B71
:1037A000C3F3462307EE103AB8EEC77A37EE067A2F
:1037B000C7EE876AFCEEE66AC0ED006A136BC3F3DE
:1037C000064307EE103AB8EEC77A37EE067AC7EE30
:1037D000876AFCEEE66AC0ED016A136BC3F3066309
:1037E00006EE903AF8EEE66A76EE866A87EEA67AFC
:1037F000FCEEC77A17EE903A836070BD0B6BDFED7D
:103800001A5AC3F3080307EE903AF8EEE77A77EE18
:10381000A67A77EE867AC5EE876A67EEA67ABDE766
:103820000B6BDFED125AC3F3080307EE903AF8EE84
:10383000E77A77EEA67A77EE867AECE70B6BDFED28
:103840000C5AC3F3080307EE903AF8EEE77A77EEE6
:10385000A67A77EE867ADEE7C0E90033CCE700BFD0
:10386000004402580090D0030024744A0024F44A13
:103870000024744C1FB5A0F580730B4315D19D4BEC
:103880001A6D02F00702042A2DD8DFE812F01C009E
:10389000E100050051014100186810F0005000F0EF
:1038A000DF8001A8FFF792FED9E0A0F500730B437B
:1038B0001BD1904B1A6D02F4E072802AECD00CD828
:1038C000002A40F0C580186810F0007000F0C88031
:1038D00001A8FFF725FF0298C2E0C02A00F0288166
:1038E000B2F5807F14D00020BAE0A0F580630B43CE
:1038F0002ED1804B9A6D02F46002B2F5800FCBD0CE
:10390000DED9B2F5C00F00F01381B2F5000FE9E780
:10391000DA6C196802F04052480706D52AB91B68CC
:10392000C3F3C1037448D8409AE0724B1968C905C3
:1039300003D5B2F1805F00F0FD80186810F400300C
:1039400000F08E80B2F1005F6C4818BF002087E065
:10395000A0F500630B431FD1664B9A6D02F0E06245
:10396000B2F1007F98D0ABD9B2F1407F00F0E08097
:10397000B2F1806FB7D1DA6C196802F040521B685F
:10398000480701D5002ACBD0D90503D5B2F1805F15
:1039900000F0D080574BD0E7A0F580530B430FD1F8
:1039A000544B1A6D02F4E042B2F5005F3FF474AF7D
:1039B00086D9B2F5405F00F0BB80B2F5804FD9E701
:1039C000A0F500530B4332D14A4A136D03F4E023B0
:1039D000B3F5403F00F081800DD8B3F5803F16D09D
:1039E000B3F5003F1BD0002B7FF47DAF05B05DF831
:1039F00004EBFEF711BFB3F5802F74D0B3F5A02F01
:103A00007FF471AF10683D4B10F400306FE0106828
:103A100010F0006024D001A8FFF72EFD5BE71068CE
:103A200010F000501CD001A8FFF7D0FD53E7A0F51F
:103A300000230B4320D12F4B9A6D02F44032B2F594
:103A4000803F10D0B2F5003F95D0002A7FF44BAFF5
:103A5000186810F0006003D001A8FFF70DFD019871
:103A600005B05DF804FB186810F00050F8D001A80C
:103A7000FFF7ACFD0398F3E7A0F580330B430CD1BF
:103A80001C4BDA6CD2037FF51EAF186810F0006093
:103A9000E6D001A8FFF7F0FCECE7A0F580430B436C
:103AA00030D1144A936D03F0E043B3F1405F14D07A
:103AB0000DD8B3F1805FAAD0B3F1005FAFD0002B77
:103AC0007FF411AF05B05DF804EBFFF7C3BCB3F1B1
:103AD000804F08D0B3F1A04F92E7106810F00400B7
:103AE000BED013681CE71068054B10F4807018BF37
:103AF0001846B5E7004402580090D00300127A003F
:103B000000093D00A0F5004008437FF4ECAE0A4AEE
:103B1000136D03F04053B3F1805F07D0B3F1005F42
:103B20003FF475AF002B7FF4DEAE6BE71068CBE699
:103B3000024895E7024893E7004402580080BB0022
:103B400000093D007047704770B56A4D6A4C2B699B
:103B500013F4803F17D02378012BDEB27BD163684A
:103B6000013B63606368002B6AD0E068FFF7EAFFFF
:103B70004FF4803331466B61E3680133E360E06802
:103B8000A26800F0BBF85B4DD5F81031DB0318D507
:103B90002378042B40F083806368013B6360636893
:103BA000002B70D0E068FFF7CDFF4FF48033022187
:103BB000C5F81431E3680133E360E068A26800F0FF
:103BC0009DF84C490B6913F4DC030FD0A2691A432A
:103BD000A2614B612278012AD3B27AD14FF0FF3330
:103BE000E068E36000232370FFF7ADFF4149D1F89F
:103BF000103113F4DC0312D0A2691A4342F00042E0
:103C0000A261C1F814312278042AD3B269D14FF0ED
:103C1000FF33E068E36000232370FFF794FF23780D
:103C200003F0FF015BB9334BDA6822F4DE02DA609D
:103C3000D3F80C2122F4DE02C3F80C21217570BDEB
:103C40004FF0FF32E2602370E068FFF77BFF4FF434
:103C500080336B6197E72278022AD3B201D0072B19
:103C600009D10120FFF76EFF00234FF4803223704B
:103C7000204B5A6187E7032B01D12069F2E7043B0F
:103C8000022B80D9F0E74FF0FF32E2602370E0684A
:103C9000FFF758FF4FF48033C5F8143191E72278CD
:103CA000D3B202F0FD02052A0AD10220FFF74AFF33
:103CB00000234FF4803223700E4BC3F8142180E7A9
:103CC000062B01D12069F1E7013B022B7FF679AF8A
:103CD000EEE7022B03D0072B01D0206982E70120F9
:103CE00080E703F0FD03052B01D0206993E7022054
:103CF00091E700BF00200052A006002410B5CC07B9
:103D00000BD50F4CE36823F4E663E360E36843EA12
:103D10000023134343F08403E3608B070FD5084966
:103D2000D1F80C3123F4E663C1F80C31D1F80C3131
:103D300043EA0020024342F08402C1F80C2110BD86
:103D4000002000522DE9F74F0023DFF8C4914FF017
:103D5000B0440A6832FA03F502D103B0BDE8F08F2F
:103D6000012505FA03F818EA020200F0BB804E684C
:103D700003274FEA430E06F0030507FA0EFC6F1EF9
:103D80006FEA0C0C012F34D8876807EA0C0ACF6859
:103D900007FA0EF747EA0A078760476827EA080824
:103DA000C6F300179F4047EA08074760C768022D1F
:103DB00007EA0C088F6807FA0EF747EA0807C7609A
:103DC00019D14FEAD30803F0070A4FF00F0B00EBAD
:103DD00088084FEA8A0AD8F820700BFA0AFB27EA0B
:103DE0000B0B0F6907FA0AF747EA0B07C8F82070B0
:103DF00001E0032DDAD1076805FA0EF516F4403F0D
:103E000007EA0C0745EA070505606BD0D9F8F450BE
:103E100023F0030703F0030C4FF00F0E45F00205EB
:103E200007F1B0474FEA8C0CC9F8F45007F58067EA
:103E3000D9F8F4500EFA0CFE05F002050195019D2B
:103E4000BD6825EA0E0E314DA8424DD005F58065BE
:103E5000A8424BD005F58065A84249D005F580659C
:103E6000A84247D005F58065A84245D005F5806594
:103E7000A84243D005F58065A84241D005F580658C
:103E8000A8423FD005F58065A8423DD005F5806584
:103E9000A84214BF0A25092505FA0CF516F4801F5F
:103EA00045EA0E05BD606FEA020725680CBF3D407C
:103EB000154316F4001F256065680CBF3D4015438F
:103EC00016F4003F6560D4F884500CBF3D401543A4
:103ED000F603C4F88450D4F8805054BF3D401543D5
:103EE000C4F88050013334E70025D5E70125D3E736
:103EF0000225D1E70325CFE70425CDE70525CBE74C
:103F00000625C9E70725C7E70825C5E700000258C9
:103F1000004402580AB1816170470904FBE7436914
:103F200001EA030221EA030141EA0241816170478B
:103F3000F0B5DFF844C10468876D644545D04C4D49
:103F4000AC4242D01835AC423FD01835AC423CD0E0
:103F50001835AC4239D01835AC4236D01835AC42A1
:103F600033D01835AC4230D005F55675AC422CD064
:103F70001835AC4229D01835AC4226D01835AC42A1
:103F800023D01835AC4220D01835AC421DD018359E
:103F9000AC421AD01835AC4217D0364DAC4214D0D2
:103FA0001435AC4211D01435AC420ED01435AC42AD
:103FB0000BD01435AC4208D01435AC4205D01435C2
:103FC000AC4202D01435AC4248D1D0E919566E60EB
:103FD000C56E15B1D0E91C566E606445C56D866826
:103FE0002DD0234884422AD01830844227D018305C
:103FF000844224D01830844221D0183084421ED00C
:10400000183084421BD01830844218D000F5567006
:10401000844214D01830844211D0183084420ED01B
:10402000183084420BD01830844208D018308442B3
:1040300005D01830844202D0183084420FD13F207E
:1040400005F01F0500FA05F5BD60206820F480200A
:104050002060402E636008D1A260E160F0BD05F0F1
:104060001F050120A8407860F3E7A160E260F5E752
:10407000280002400854025810000240036802461B
:1040800023498B4210B531D018318B422ED01831D4
:104090008B422BD018318B4228D018318B4225D03F
:1040A00018318B4222D018318B421FD018318B42ED
:1040B0001CD001F556718B4218D018318B4215D0A7
:1040C00018318B4212D018318B420FD018318B42ED
:1040D0000CD018318B4209D018318B4206D01831E0
:1040E0008B4203D023F0FF00906510BDDCB2182195
:1040F0000848103CB4FBF1F101F007015F2C415C72
:1041000023F47F7020F00300D16588BF0430EBE713
:104110001000024094AB000802682049D3B28A42E2
:1041200028D014318A4225D014318A4222D0143149
:104130008A421FD014318A421CD014318A4219D0CD
:1041400014318A4216D014318A4213D01821103B00
:10415000B3FBF1F312491144A8291CD903F1805291
:10416000012103F01F0302F5024201FA03F30D4996
:1041700092000CE01422083B0121B3FBF2F303F19F
:10418000B05201FA03F3084902F516429200836621
:10419000C0E9182170470833E0E700BF085402580F
:1041A000F0FBFDBF80080240805802580279511E82
:1041B000072910B521D80368134CA3421ED014342C
:1041C000A3421BD01434A34218D01434A34215D0F8
:1041D0001434A34212D01434A3420FD01434A34297
:1041E0000CD01434A34209D0084B1344084A9B0056
:1041F000C0E91B3201238B40436710BD054B1344BC
:10420000054A9B00F4E700BF085402583F820010A3
:10421000400902403F96001640590258F8B504463E
:1042200000F0A6FE0646002C00F0A98023686F4D22
:10423000AB4264D06E4A934261D0183293425ED052
:10424000183293425BD01832934258D018329342BE
:1042500055D01832934252D0183293424FD002F5C3
:10426000567293424BD01832934248D01832934240
:1042700045D01832934242D0183293423FD0183280
:1042800093423CD01832934239D01832934236D000
:10429000584A934240F02F81022284F835200022B0
:1042A00084F83420A2681868402A6FF3101000F0D8
:1042B0004081A2F180014A424A419203D4E90316A7
:1042C000314366693143A6693143E6693143266A61
:1042D00040EA161040EAD10120460A431A60464AD5
:1042E0001A441423B2FBF3F29200E265FFF7C6FE14
:1042F000E36D03F01F0201239340436092E002222A
:1043000084F83520002284F834201A6822F0010253
:104310001A6022681368DB0727D413683748A1693D
:104320001840D4E902363343266933436669334380
:10433000E6690B433343266A3343666A042E43EA35
:10434000000302BFD4E90B07384303432C4800683D
:104350006FF30F00B0F1005F1BD360682E2810D8F8
:10436000282816D943F4801313E000F001FE801BC7
:104370000528CED920236365032384F83530012036
:10438000F8BD3F38132804D81E4F27FA00F0C7079E
:10439000E8D41360042E536923F0070343EA0603AD
:1043A00036D1A06AE66A034396B339B9012815D01D
:1043B00030F002012CD1F0012AD512E0B1F5005FF6
:1043C00022D1032824D801A151F820F0E3430008AA
:1043D000B7430008E3430008DD430008B6F1C07F9F
:1043E00016D1402363650123C7E700BF10000240D8
:1043F0002800024008540258F8ABFDA73F8010FE89
:104400000010005C0F030F000228EAD90328D2D065
:1044100053612046FFF732FEE36D03F01F023F2396
:10442000934083602368AB4245D0454A934242D0D3
:10443000183293423FD0183293423CD01832934204
:1044400039D01832934236D01832934233D01832D2
:10445000934230D002F5567293422CD018329342D8
:1044600029D01832934226D01832934223D01832E2
:10447000934220D0183293421DD0183293421AD062
:104480001832934217D02F4A934214D014329342D9
:1044900011D0143293420ED0143293420BD0143206
:1044A000934208D01432934205D01432934202D082
:1044B0001432934219D120460025FFF72DFEA36840
:1044C000226E802B04BF002363606368D9B2013B76
:1044D0001160072BD4E9192151602CD8FFF766FE33
:1044E000E36E1D60D4E91C325A6000200123606530
:1044F00084F8353044E7144A93423FF4CDAE143289
:1045000093423FF4C9AE143293423FF4C5AE143225
:1045100093423FF4C1AE143293423FF4BDAE143225
:1045200093423FF4B9AE143293423FF4B5AE402308
:1045300021E71022C2E6C4E91B556567D5E700BF35
:1045400028000240085402581C54025870B5054611
:10455000002800F0DA8090F83400012800F0D780BD
:10456000012085F8340095F8350001284FF000004F
:1045700040F0C6800224674E85F835402C68686597
:10458000B4421ED0644884421BD01830844218D0F4
:104590001830844215D01830844212D0183084422A
:1045A0000FD0183084420CD01830844209D000F566
:1045B0005670844205D01830844202D018308442AC
:1045C000FFD0206820F0010020602846FFF7B0FCF3
:1045D000B4422A6C53D0504B9C4250D018339C426A
:1045E0004DD018339C424AD018339C4247D01833E0
:1045F0009C4244D018339C4241D018339C423ED058
:1046000003F556739C423AD018339C4237D0183386
:104610009C4234D018339C4231D018339C422ED067
:1046200018339C422BD018339C4228D018339C421C
:1046300025D0236823F00E0343F00A032360002AE9
:1046400054D1364B9C4225D0354B9C4222D014335A
:104650009C421FD014339C421CD014339C4219D06E
:1046600014339C4216D014339C4213D014339C4212
:1046700010D02368002043F00103236070BD23683D
:1046800023F01E0343F0160323601AB1236843F09E
:10469000080323602B6E1A68D2032CD4EB6E1BB177
:1046A0001A6842F480721A60B442E2D01A4B9C42FB
:1046B000DFD018339C42DCD018339C42D9D0183359
:1046C0009C42D6D018339C42D3D018339C42D0D0D1
:1046D00018339C42CDD003F556739C42C9D0183391
:1046E0009C42C6D018339C42C3D0C2E7236843F033
:1046F00004032360A5E71A6842F480721A60CDE7CC
:104700004FF4006385F834006B650120B6E70220A2
:10471000B4E700BF100002402800024008540258CD
:104720001C540258F8B5054600F022FC074645B176
:1047300095F83530022B06D080236B65002385F871
:1047400034300120F8BD2C687C4EB4425BD07C4BE9
:104750009C4258D018339C4255D018339C4252D0BA
:1047600018339C424FD018339C424CD018339C4293
:1047700049D018339C4246D003F556739C4242D030
:1047800018339C423FD018339C423CD018339C4293
:1047900039D018339C4236D018339C4233D018336A
:1047A0009C4230D018339C422DD0236823F00E0356
:1047B0002360644B9C422FD12A6EB442136823F4C9
:1047C000807313603DD05E4B9C423AD018339C42BC
:1047D00037D018339C4234D018339C4231D0183330
:1047E0009C422ED018339C422BD018339C4228D0A8
:1047F00003F556739C4224D018339C4221D01833C1
:104800009C421ED01DE0236823F01E0323606369D1
:1048100023F080036361CFE74B4B9C42CCD0143331
:104820009C42C9D014339C42C6D014339C42C3D09E
:1048300014339C42C0D014339C42BDD014339C42EC
:10484000BAD0236823F0010323602368DB0747D431
:104850002B68EA6DB342A86D02F01F024BD03849B5
:104860008B4248D018318B4245D018318B4242D010
:1048700018318B423FD018318B423CD018318B42DB
:1048800039D018318B4236D001F556718B4232D077
:1048900018318B422FD018318B422CD018318B42DB
:1048A00029D018318B4226D018318B4223D01831B1
:1048B0008B4220D018318B421DD0012101FA02F227
:1048C0004260204A93421AD1D5E919325A60EB6E00
:1048D0005BBB0123002085F8353085F8340031E7D3
:1048E00000F046FBC01B0528AFD920236B650323CE
:1048F00085F8353022E73F2393408360E4E7124A8E
:104900009342E1D014329342DED014329342DBD092
:1049100014329342D8D014329342D5D014329342F9
:10492000D2D014329342D4D1CEE71A6822F48072E6
:104930001A60D5E91C325A60CBE700BF1000024074
:1049400028000240085402581C54025808B528B1E7
:1049500090F83530022B03D08023436501205DE0C1
:1049600003683F4A934251D0183293424ED01832D6
:1049700093424BD01832934248D01832934245D0DC
:104980001832934242D0183293423FD018329342A9
:104990003CD002F55672934238D01832934235D04B
:1049A0001832934232D0183293422FD018329342A9
:1049B0002CD01832934229D01832934226D0183284
:1049C000934223D01A6822F00E021A601A6822F06D
:1049D00001021A60234A934221D1026E136823F424
:1049E00080731360D0E9161303F01F020123934074
:1049F0004B60D0E919325A60C36E2BB31A6822F4A7
:104A000080721A60D0E91C325A601DE0042280F8DE
:104A100035201A6822F001021A60002008BD124AEF
:104A20009342DAD014329342D7D014329342D4D086
:104A300014329342D1D014329342CED014329342E6
:104A4000CBD014329342C8D0012380F835300023F4
:104A500080F83430036D002BDFD09847DDE700BFCE
:104A600010000240085402581C54025800232DE93B
:104A7000F34101930446844B844F1E680368856D9F
:104A8000BB42D5F80080D5F800C047D0804A934299
:104A900044D01832934241D0183293423ED018325B
:104AA00093423BD01832934238D01832934235D0DB
:104AB0001832934232D002F5567293422ED01832F9
:104AC00093422BD01832934228D01832934225D0EB
:104AD0001832934222D0183293421FD01832934298
:104AE0001CD01832934219D06A4A934240F0368162
:104AF000E16D04201A6801F01F01884010EA0C0FD4
:104B000000F05381560740F150811104686040F174
:104B10004481D30300F14781A36CA0E0E26D08213A
:104B200002F01F02914011EA080F0BD018684007ED
:104B300008D5186820F004001860A960616D41F084
:104B40000101616528FA02F1C80709D5596909060A
:104B500006D501219140A960616D41F002016165B6
:104B60000421914011EA080F07D01868800704D586
:104B7000A960616D41F004016165102101FA02F242
:104B800012EA080F0FD0196809070CD5AA601A6835
:104B900050036CD51B68190301D4236C00E0A36C8F
:104BA0000BB120469847E26D202102F01F02914090
:104BB00011EA080F7AD02368BB422DD034488342D3
:104BC0002AD01830834227D01830834224D018309E
:104BD000834221D0183083421ED0183083421BD02C
:104BE0001830834218D000F55670834214D0183024
:104BF000834211D0183083420ED0183083420BD03C
:104C00001830834208D01830834205D018308342D0
:104C100002D01830834232D1186810F0100F45D0FE
:104C2000A96094F83510042936D1196821F01601CD
:104C30001960596921F080015961216C09B9A16C91
:104C400019B1196821F0080119603F239340AB6046
:104C5000012384F83530002384F83430236D002B91
:104C600000F09880204602B0BDE8F04118471A686D
:104C7000D20592D41A6822F008021A608DE71868EB
:104C800010F0020FCBE700BF040000241000024028
:104C900028000240085402581A68500343D51B6884
:104CA00019034DD4636C0BB120469847636D002BFC
:104CB00070D0636DDA074FD5042384F8353023684C
:104CC000BB421ED04F4A93421BD01832934218D099
:104CD0001832934215D01832934212D018329342B0
:104CE0000FD0183293420CD01832934209D002F5FB
:104CF0005672934205D01832934202D01832934232
:104D0000FFD01A6822F001021A604FF41652B6FB67
:104D1000F2F6019A0132B242019213D91B68DB0705
:104D200014D4012313E01A6812F4807208D11968B0
:104D300021F010011960012384F8342084F8353003
:104D4000E36BB0E71A68D707E3D4E7E7032384F8F7
:104D50003530002384F83430E36C80E72A4A9342EC
:104D60003FF4C6AE143293423FF4C2AE14329342C3
:104D70003FF4BEAE143293423FF4BAAE14329342C3
:104D80003FF4B6AE143293423FF4B2AE14329342C3
:104D90003FF4AEAE02B0BDE8F081970603D41A68C6
:104DA00022F004021A60236C59E70220884010EABE
:104DB0000C0F16D0960714D56860100403D5D103E4
:104DC0000DD4636C4BE712F0200208D1196821F072
:104DD0000A011960012384F8342084F83530E36B2C
:104DE0003DE70820884010EA0C0FD3D01207D1D538
:104DF0001A6822F00E021A60012303FA01F16960B9
:104E00006365A4E7280002401C540258406D7047B7
:104E100038B5104CE36813F0040FE36805D103F0D4
:104E20000703181A18BF012038BD23F007031843E1
:104E3000E06000F09DF8054663689B0401D5002002
:104E4000F2E700F095F8401BB0F57A7FF4D9012025
:104E5000EAE700BF0048025807490302CA6803F4A2
:104E6000E06322F4E0621204120C134343F0BF63C8
:104E700043F40033CB60704700ED00E0164B30B5D3
:104E8000DC68C4F30224C4F10703251D042B28BFEA
:104E90000423062D4FF0FF358CBF033C002405FA98
:104EA00003F3002805FA04F521EA030322EA0502C8
:104EB00003FA04F343EA02034FEA0313DBB206DB0F
:104EC00000F1604000F5614080F8003330BD00F033
:104ED0000F00024A1354F9E700ED00E014ED00E082
:104EE000002807DB0123410900F01F00024A83402C
:104EF00042F82130704700BF00E100E010B5032008
:104F0000FFF7AAFFFDF79EFA0F49104A8B69C3F31A
:104F10000323D35C03F01F03D8408B6903F00F0316
:104F2000D35C0B4A03F01F0320FA03F31360094B11
:104F300018600F20FCF718F9044618B9FCF7F8F8C8
:104F4000204610BD0124FBE70044025884AB000852
:104F50000000002404000024034A044B11681B785D
:104F60000B441360704700BFBC06002408000024F7
:104F7000014B1868704700BFBC06002438B50446D2
:104F8000FFF7F6FF0546631C1EBF044B1B78E418B1
:104F9000FFF7EEFF431BA342FAD338BD08000024FD
:104FA000014B1868000C70470010005CF0B5D1E9A7
:104FB00000670C698D68FFB92C4344EA8644D1E947
:104FC000066535434E6935430E6A45EA0665CE6887
:104FD00045EA0645866ED0F88400734300EB8306ED
:104FE00040F8234000200F4C75600836CB6804322F
:104FF000E35C834205D8F0BD34432C4344F0804445
:10500000DDE712F8023C12F8015C1B0443EA056379
:1050100012F8045C2B4312F8035C43EA0523335077
:105020000430E3E79CAB00082DE9F04F99B004464B
:105030004C22CC4905A8FBF75DF9002C00F0B381A8
:10504000C94B22689A4204BF03F58073636094F8E9
:10505000983003F0FF0223B9204684F89920FBF72B
:10506000DBFD2268936923F010039361FFF780FF53
:10507000054623689A69110700F186819A6942F012
:1050800001029A61FFF774FF054623689A69D20707
:1050900040F18D819A6942F002029A61227C012AD4
:1050A0009A690CBF22F0400242F040029A61627C91
:1050B000012A9A690CBF42F4804222F480429A612C
:1050C000A27C012A9A690CBF22F4805242F48052D9
:1050D0009A619A69A06822F4407202439A619A69BF
:1050E00022F0A4029A611A6922F010021A61E268A1
:1050F000012A40F063819A6942F004029A61A26930
:10510000B0F5407F02F1FF31E26902F1FF324FEA70
:10511000022242EA4162216A01F1FF3142EA0102C0
:10512000616901F1FF3142EA0142DA610ED1E26ABE
:10513000511E226B013A120142EA0122A16A013991
:105140000A43616A013942EA0142DA60266E2EB1F1
:10515000D3F8C020616E0A43C3F8C020D4F85CE0E5
:10516000A26E16EB0E0F01920CD018A80199D3F87D
:10517000C82000EB810122F0070251F84C1C0A43C1
:10518000C3F8C820D4E910C20392BCF1000F0CD0C0
:1051900018A80399D3F8BC2000EB810122F0070284
:1051A00051F84C1C0A43C3F8BC20D4E91289B8F169
:1051B000000F0CD018A9D3F8BC2001EB890122F014
:1051C000700251F84C1C42EA0112C3F8BC20226D57
:1051D000D4F854B0029262B118A9D3F8BC2001EB04
:1051E0008B0122F4E06251F84C1C42EA0122C3F820
:1051F000BC205D4A934204D161688A6822F00302B0
:105200008A600022594D606BC4F89C20C4F8942039
:105210000122D4F83CA084F89820D3F884202A40B6
:1052200042EA8002C3F88420D3F88410A26B21F4F0
:105230007F0141EA0241C3F884108118D3F88870D5
:1052400000F180502F4000F52C5047EA810701EB18
:105250004A01C3F888708000D3F8887027F4FE07ED
:1052600047EA0A47C3F88870D3F8A0702F4047EA8E
:105270008107C3F8A070D3F8A07027F4FE0747EAAF
:105280000C47C3F8A070039F07FB0CFCD3F8B07069
:1052900061442F4047EA8107C3F8B070D3F8B0707B
:1052A00027F4FE0747EA0847C3F8B07009FB08F780
:1052B000D3F8AC8001EB070908EA0508029948EA2F
:1052C00089080BFB01FBC3F8AC80D3F8F08009EB35
:1052D0000B01D4F8589008EA050848EA810801EB68
:1052E0004901C3F8F080D3F8F08028F47C1848EA2C
:1052F0000948C3F8F080D3F8C08008EA050848EAF6
:105300008101C3F8C010D3F8C01021F47C1141EA28
:105310000E41C3F8C010D3F8C01021F07C5141EA0F
:105320000661C3F8C01000EB8203019A236703EB08
:10533000CA0302FB0EFE636703EB8C035643A367AD
:1053400003EB8703E066E36703EB8B03C4F880306D
:1053500003EBC903C4F8843003EB8E0303EB86062A
:1053600006E000BF18AB000800A000400300FFFFEC
:10537000C4F88830204BC4F890609E4235D9D4F8E8
:105380009C3043F0200309E0FFF7F2FD401B0A28A0
:105390007FF66FAED4F89C3043F00103C4F89C3024
:1053A000032384F89830012019B0BDE8F08FFFF78F
:1053B000DFFD401B0A287FF668AEEBE7002A3FF4CA
:1053C0009EAE022A0AD09969032A41F080019961B0
:1053D000196941F0100119617FF491AE9A6942F0A8
:1053E00020028BE6002340F8043BD4F8903098422A
:1053F000F8D30020D8E700BFFCD3004030B590F8C8
:105400009830013B012B2DD8D1E90054D1E9032379
:10541000BDB9072A4FEA03430BD1CA6943EA022305
:105420008A69134343F06053C26E42F8243000206F
:1054300030BD8D68496943EA85730B4343EAC26313
:10544000F2E7072A43EA42731ABF8D684A698A69FC
:10545000016F18BF42EA857201EBC40041F8343095
:105460004260E4E7D0F89C3043F00203C0F89C307F
:105470000120DDE790F89830012B0CD1026802235F
:1054800080F89830936923F0010393610023C0F8FA
:105490009C3018467047D0F89C3043F00403C0F8A5
:1054A0009C3001207047F8B590F898300446022BE4
:1054B00026D10668D6F8C03013F07C5F07D1D0F84B
:1054C0009C3043F020030120C4F89C30F8BDD6F88E
:1054D000C45015F4001504D0D0F89C3043F4007388
:1054E000F1E7D6F8C470C7F304473B46FFF75EFD0B
:1054F00001222846BA40C6F8D020C4F89420E5E737
:10550000D0F89C3043F00803DDE70000F0B590F8D8
:105510009840022C40F0AC80402966D10568D5F84F
:10552000A04014F4FE0F04D1D0F89C3043F02003C7
:1055300007E0D5F8A440660607D1D0F89C3043F4C4
:105540008073C0F89C300120F0BDD5F8A44014F061
:10555000807402D0D5F8A040E40FD5F8A450466F6F
:10556000C5F305252544446C6C4306EB8404276889
:1055700007F0804757602668002F5ED1C6F38A4641
:105580001660073454F8076CDFF8F0C006F00056D8
:10559000966054F8076C06F00046166134F8036C08
:1055A000D66134F8016C06F00F06D66054F8036C2F
:1055B00006F48016566154F8036C06F400169661E2
:1055C000267806F07F06166254F8036CF60F5662D2
:1055D0000026D7681CF80770B74231D84029026806
:1055E00033D1C2F8A8500020AEE741291AD105688E
:1055F000D5F8B04014F4FE0F96D0D5F8B440640648
:105600009BD0D5F8B44014F0807402D0D5F8B040E7
:10561000E40FD5F8B450866FC5F305252544C46C56
:105620006C43A2E7046D8C427FF67EAF446DC56F7C
:105630004C4305EB8404002599E726F060469FE77C
:1056400014F8017F9F550136C3E7412902D1C2F802
:10565000B850C8E71F294FF0010303D88B40C2F8A8
:105660009830C0E701F01F018B40C2F89C30BAE7C8
:10567000D0F89C3043F0080363E700BF9CAB000800
:1056800090F89830013B012B2DD80368986D0842A3
:105690001FD1D86D40F00100D865880504D5D3F836
:1056A000E0001043C3F8E000480504D5D3F8E40057
:1056B0000243C3F8E42021F04042586D22F4401226
:1056C000024300205A650C4A536943EA91735361BF
:1056D0007047986D31EA000003D1D86D40F00200A8
:1056E000DAE70320D8E7D0F89C3043F00203C0F893
:1056F0009C300120704700BF00A8004070477047F1
:1057000070477047704770477047704770477047E1
:105710007047704770477047704770472DE9F74FE3
:10572000AC4983460C694A6904EA02030268146DB5
:10573000556D00939B0704EA050A146D556D01939E
:105740000AF4704A04EA0509146D556D166D09F0E6
:105750000F0904EA0508546D176D2640546D556D08
:1057600008F0F008274006F07156EB05146D07F0BD
:10577000607708D5E30506D54FF4807313650022E2
:105780000A61FFF7C4FF680511D561050FD5DBF885
:1057900000204FF48063D2F8DC00D2F8E4101365E7
:1057A00000238C4A014058461361FFF7ACFF019B70
:1057B00063B1DBF800200021009B58461165854944
:1057C00003F003020A610199FFF798FFBAF1000F95
:1057D0000AD0DBF8002000215846C2F850A07D4ACC
:1057E00011615146FFF78BFFB9F1000F0AD0DBF8CA
:1057F000002000215846C2F85090764A116149466F
:1058000002F052F9B8F1000F0AD0DBF800200021B5
:105810005846C2F850806F4A11614146FFF770FF49
:105820002A050CD523050AD5DBF800204FF40061CA
:10583000584611650021674A1161FFF762FFA8050C
:1058400011D5A1050FD5DBF800204FF40073D2F875
:10585000D800D2F8E010136500235E4A0140584694
:105860001361FFF74FFF2A030CD523030AD5DBF89A
:1058700000204FF40021584611650021554A11615E
:10588000FFF742FFE8030CD5E1030AD5DBF800205F
:105890004FF480315846116500214E4A1161FFF7DF
:1058A00034FF6A030CD563030AD5DBF800204FF4FC
:1058B0008021584611650021464A1161FFF726FFF5
:1058C000A803DBF800100DD5A2030BD54FF400326E
:1058D00000200A653F4A1061DBF89C2042F08002FC
:1058E000CBF89C203FB10F6500213A4A5846116120
:1058F0003946FFF70EFFDBF8001046B1354A0020AD
:105900000E651061DBF89C203243CBF89C20324AB4
:10591000914263D1DBF8042091688B075ED0116A55
:10592000506A176A0140506A166A0740506A156A41
:1059300011F00F0106EA0006506A146A07F03007FA
:1059400005EA0005506A06F4C076D2F8249004EA0D
:10595000000405F4FC45D2F8208004F4F02403D0C0
:1059600058461162FFF7D6FE37B1DBF804203946FE
:1059700058461762FFF7CFFE19F0400F0ED018F00F
:10598000400F0BD0DBF804004027C16BC26B090C41
:10599000076202F03F025846FFF7BEFE36B1DBF861
:1059A0000420314658461662FFF7B7FE3DB1DBF8DA
:1059B00004201562DBF89C202A43CBF89C206CB1B4
:1059C000DBF804201462DBF89C202243CBF89C20F7
:1059D00004E000BF00A8004000A00040DBF89C20CD
:1059E00012B15846FFF794FE03B0BDE8F08F00BF38
:1059F0007047000090F83D30012B33D1022380F82E
:105A00003D300368DA6842F00102DA60164A9342D8
:105A10001AD0B3F1804F17D0A2F57C42934213D035
:105A200002F5806293420FD002F5806293420BD060
:105A300002F57842934207D0A2F56C42934203D01C
:105A400002F59432934207D19968084A0A40062A1F
:105A500006D0B2F5803F03D01A6842F001021A6006
:105A6000002070470120704700000140070001003E
:105A70007047704770477047036870B5DD6804462B
:105A80001E69B2070DD5A9070BD56FF002021A6186
:105A9000012202779B699A0775D0FFF7EAFF00237E
:105AA0002377730710D568070ED523686FF00402BB
:105AB00020461A61022222779B6913F4407F68D046
:105AC000FFF7D7FF0023237731070FD52A070DD51E
:105AD00023686FF0080220461A6104222277DB69EE
:105AE0009B075CD0FFF7C5FF00232377F10610D595
:105AF000EA060ED523686FF0100220461A610822CC
